{"contracts/AreaCalculator.sol":{"AreaCalculator":{"abi":[{"constant":true,"inputs":[{"internalType":"uint256","name":"length","type":"uint256"},{"internalType":"uint256","name":"width","type":"uint256"}],"name":"calculateRectangleArea","outputs":[{"internalType":"uint256","name":"","type":"uint256"}],"payable":false,"stateMutability":"pure","type":"function"},{"constant":true,"inputs":[{"internalType":"uint256","name":"side","type":"uint256"}],"name":"calculateSquareArea","outputs":[{"internalType":"uint256","name":"","type":"uint256"}],"payable":false,"stateMutability":"pure","type":"function"},{"constant":true,"inputs":[{"internalType":"uint256","name":"base","type":"uint256"},{"internalType":"uint256","name":"height","type":"uint256"}],"name":"calculateTriangleArea","outputs":[{"internalType":"uint256","name":"","type":"uint256"}],"payable":false,"stateMutability":"pure","type":"function"}],"evm":{"bytecode":{"linkReferences":{},"object":"608060405234801561001057600080fd5b5060f38061001f6000396000f3fe6080604052348015600f57600080fd5b5060043610603c5760003560e01c806312c0f982146041578063ab65aa3414606d578063bda1ea6714608d575b600080fd5b605b60048036036020811015605557600080fd5b503560ad565b60408051918252519081900360200190f35b605b60048036036040811015608157600080fd5b508035906020013560b2565b605b6004803603604081101560a157600080fd5b508035906020013560b6565b800290565b0290565b60029102049056fea265627a7a7231582069e2d12f14be0a3086fbb29eff1193fe22f27ed368e147524a2784e41b87c95964736f6c63430005100032","opcodes":"PUSH1 0x80 PUSH1 0x40 MSTORE CALLVALUE DUP1 ISZERO PUSH2 0x10 JUMPI PUSH1 0x0 DUP1 REVERT JUMPDEST POP PUSH1 0xF3 DUP1 PUSH2 0x1F PUSH1 0x0 CODECOPY PUSH1 0x0 RETURN INVALID PUSH1 0x80 PUSH1 0x40 MSTORE CALLVALUE DUP1 ISZERO PUSH1 0xF JUMPI PUSH1 0x0 DUP1 REVERT JUMPDEST POP PUSH1 0x4 CALLDATASIZE LT PUSH1 0x3C JUMPI PUSH1 0x0 CALLDATALOAD PUSH1 0xE0 SHR DUP1 PUSH4 0x12C0F982 EQ PUSH1 0x41 JUMPI DUP1 PUSH4 0xAB65AA34 EQ PUSH1 0x6D JUMPI DUP1 PUSH4 0xBDA1EA67 EQ PUSH1 0x8D JUMPI JUMPDEST PUSH1 0x0 DUP1 REVERT JUMPDEST PUSH1 0x5B PUSH1 0x4 DUP1 CALLDATASIZE SUB PUSH1 0x20 DUP2 LT ISZERO PUSH1 0x55 JUMPI PUSH1 0x0 DUP1 REVERT JUMPDEST POP CALLDATALOAD PUSH1 0xAD JUMP JUMPDEST PUSH1 0x40 DUP1 MLOAD SWAP2 DUP3 MSTORE MLOAD SWAP1 DUP2 SWAP1 SUB PUSH1 0x20 ADD SWAP1 RETURN JUMPDEST PUSH1 0x5B PUSH1 0x4 DUP1 CALLDATASIZE SUB PUSH1 0x40 DUP2 LT ISZERO PUSH1 0x81 JUMPI PUSH1 0x0 DUP1 REVERT JUMPDEST POP DUP1 CALLDATALOAD SWAP1 PUSH1 0x20 ADD CALLDATALOAD PUSH1 0xB2 JUMP JUMPDEST PUSH1 0x5B PUSH1 0x4 DUP1 CALLDATASIZE SUB PUSH1 0x40 DUP2 LT ISZERO PUSH1 0xA1 JUMPI PUSH1 0x0 DUP1 REVERT JUMPDEST POP DUP1 CALLDATALOAD SWAP1 PUSH1 0x20 ADD CALLDATALOAD PUSH1 0xB6 JUMP JUMPDEST DUP1 MUL SWAP1 JUMP JUMPDEST MUL SWAP1 JUMP JUMPDEST PUSH1 0x2 SWAP2 MUL DIV SWAP1 JUMP INVALID LOG2 PUSH6 0x627A7A723158 KECCAK256 PUSH10 0xE2D12F14BE0A3086FBB2 SWAP15 SELFDESTRUCT GT SWAP4 INVALID 0x22 CALLCODE PUSH31 0xD368E147524A2784E41B87C95964736F6C6343000510003200000000000000 "},"methodIdentifiers":{"calculateRectangleArea(uint256,uint256)":"ab65aa34","calculateSquareArea(uint256)":"12c0f982","calculateTriangleArea(uint256,uint256)":"bda1ea67"}}}}}