{
  "_format": "hh-sol-artifact-1",
  "contractName": "Crowdfunding",
  "sourceName": "contracts/CrowdFunding.sol",
  "abi": [
    {
      "inputs": [],
      "payable": false,
      "stateMutability": "nonpayable",
      "type": "constructor"
    },
    {
      "anonymous": false,
      "inputs": [
        {
          "indexed": false,
          "internalType": "uint256",
          "name": "campaignId",
          "type": "uint256"
        },
        {
          "indexed": false,
          "internalType": "string",
          "name": "title",
          "type": "string"
        },
        {
          "indexed": false,
          "internalType": "string",
          "name": "description",
          "type": "string"
        },
        {
          "indexed": false,
          "internalType": "address",
          "name": "benefactor",
          "type": "address"
        },
        {
          "indexed": false,
          "internalType": "uint256",
          "name": "goal",
          "type": "uint256"
        },
        {
          "indexed": false,
          "internalType": "uint256",
          "name": "deadline",
          "type": "uint256"
        }
      ],
      "name": "CampaignCreated",
      "type": "event"
    },
    {
      "anonymous": false,
      "inputs": [
        {
          "indexed": false,
          "internalType": "uint256",
          "name": "campaignId",
          "type": "uint256"
        },
        {
          "indexed": false,
          "internalType": "uint256",
          "name": "amountRaised",
          "type": "uint256"
        },
        {
          "indexed": false,
          "internalType": "address",
          "name": "benefactor",
          "type": "address"
        }
      ],
      "name": "CampaignEnded",
      "type": "event"
    },
    {
      "anonymous": false,
      "inputs": [
        {
          "indexed": false,
          "internalType": "uint256",
          "name": "campaignId",
          "type": "uint256"
        },
        {
          "indexed": false,
          "internalType": "address",
          "name": "donor",
          "type": "address"
        },
        {
          "indexed": false,
          "internalType": "uint256",
          "name": "amount",
          "type": "uint256"
        }
      ],
      "name": "DonationReceived",
      "type": "event"
    },
    {
      "anonymous": false,
      "inputs": [
        {
          "indexed": false,
          "internalType": "uint256",
          "name": "campaignId",
          "type": "uint256"
        },
        {
          "indexed": false,
          "internalType": "address",
          "name": "donor",
          "type": "address"
        },
        {
          "indexed": false,
          "internalType": "uint256",
          "name": "amount",
          "type": "uint256"
        }
      ],
      "name": "RefundIssued",
      "type": "event"
    },
    {
      "payable": true,
      "stateMutability": "payable",
      "type": "fallback"
    },
    {
      "constant": true,
      "inputs": [],
      "name": "campaignCount",
      "outputs": [
        {
          "internalType": "uint256",
          "name": "",
          "type": "uint256"
        }
      ],
      "payable": false,
      "stateMutability": "view",
      "type": "function"
    },
    {
      "constant": true,
      "inputs": [
        {
          "internalType": "uint256",
          "name": "",
          "type": "uint256"
        }
      ],
      "name": "campaigns",
      "outputs": [
        {
          "internalType": "string",
          "name": "title",
          "type": "string"
        },
        {
          "internalType": "string",
          "name": "description",
          "type": "string"
        },
        {
          "internalType": "address payable",
          "name": "benefactor",
          "type": "address"
        },
        {
          "internalType": "uint256",
          "name": "goal",
          "type": "uint256"
        },
        {
          "internalType": "uint256",
          "name": "deadline",
          "type": "uint256"
        },
        {
          "internalType": "uint256",
          "name": "amountRaised",
          "type": "uint256"
        },
        {
          "internalType": "bool",
          "name": "ended",
          "type": "bool"
        }
      ],
      "payable": false,
      "stateMutability": "view",
      "type": "function"
    },
    {
      "constant": false,
      "inputs": [
        {
          "internalType": "uint256",
          "name": "campaignId",
          "type": "uint256"
        }
      ],
      "name": "claimRefund",
      "outputs": [],
      "payable": false,
      "stateMutability": "nonpayable",
      "type": "function"
    },
    {
      "constant": false,
      "inputs": [
        {
          "internalType": "string",
          "name": "_title",
          "type": "string"
        },
        {
          "internalType": "string",
          "name": "_description",
          "type": "string"
        },
        {
          "internalType": "address payable",
          "name": "_benefactor",
          "type": "address"
        },
        {
          "internalType": "uint256",
          "name": "_goal",
          "type": "uint256"
        },
        {
          "internalType": "uint256",
          "name": "_duration",
          "type": "uint256"
        }
      ],
      "name": "createCampaign",
      "outputs": [],
      "payable": false,
      "stateMutability": "nonpayable",
      "type": "function"
    },
    {
      "constant": false,
      "inputs": [
        {
          "internalType": "uint256",
          "name": "campaignId",
          "type": "uint256"
        }
      ],
      "name": "donateToCampaign",
      "outputs": [],
      "payable": true,
      "stateMutability": "payable",
      "type": "function"
    },
    {
      "constant": false,
      "inputs": [
        {
          "internalType": "uint256",
          "name": "campaignId",
          "type": "uint256"
        }
      ],
      "name": "endCampaign",
      "outputs": [],
      "payable": false,
      "stateMutability": "nonpayable",
      "type": "function"
    },
    {
      "constant": true,
      "inputs": [],
      "name": "owner",
      "outputs": [
        {
          "internalType": "address",
          "name": "",
          "type": "address"
        }
      ],
      "payable": false,
      "stateMutability": "view",
      "type": "function"
    },
    {
      "constant": false,
      "inputs": [],
      "name": "withdrawLeftoverFunds",
      "outputs": [],
      "payable": false,
      "stateMutability": "nonpayable",
      "type": "function"
    }
  ],
  "bytecode": "0x608060405234801561001057600080fd5b50600080546001600160a01b03191633179055610faf806100326000396000f3fe60806040526004361061007b5760003560e01c80637274e30d1161004e5780637274e30d146102515780638da5cb5b146102785780639304d124146102a9578063dd0408ae146103f75761007b565b8063141961bc146100b25780632bd71681146101f357806342a4fda81461020a5780635b7baf6414610227575b60405162461bcd60e51b8152600401808060200182810382526026815260200180610f556026913960400191505060405180910390fd5b3480156100be57600080fd5b506100dc600480360360208110156100d557600080fd5b5035610421565b604051808060200180602001886001600160a01b03166001600160a01b031681526020018781526020018681526020018581526020018415151515815260200183810383528a818151815260200191508051906020019080838360005b83811015610151578181015183820152602001610139565b50505050905090810190601f16801561017e5780820380516001836020036101000a031916815260200191505b5083810382528951815289516020918201918b019080838360005b838110156101b1578181015183820152602001610199565b50505050905090810190601f1680156101de5780820380516001836020036101000a031916815260200191505b50995050505050505050505060405180910390f35b3480156101ff57600080fd5b50610208610586565b005b6102086004803603602081101561022057600080fd5b503561064c565b34801561023357600080fd5b506102086004803603602081101561024a57600080fd5b50356107ae565b34801561025d57600080fd5b50610266610a12565b60408051918252519081900360200190f35b34801561028457600080fd5b5061028d610a18565b604080516001600160a01b039092168252519081900360200190f35b3480156102b557600080fd5b50610208600480360360a08110156102cc57600080fd5b8101906020810181356401000000008111156102e757600080fd5b8201836020820111156102f957600080fd5b8035906020019184600183028401116401000000008311171561031b57600080fd5b91908080601f016020809104026020016040519081016040528093929190818152602001838380828437600092019190915250929594936020810193503591505064010000000081111561036e57600080fd5b82018360208201111561038057600080fd5b803590602001918460018302840111640100000000831117156103a257600080fd5b91908080601f016020809104026020016040519081016040528093929190818152602001838380828437600092019190915250929550506001600160a01b038335169350505060208101359060400135610a27565b34801561040357600080fd5b506102086004803603602081101561041a57600080fd5b5035610c82565b600260208181526000928352604092839020805484516001821615610100026000190190911693909304601f81018390048302840183019094528383529283918301828280156104b25780601f10610487576101008083540402835291602001916104b2565b820191906000526020600020905b81548152906001019060200180831161049557829003601f168201915b505050505090806001018054600181600116156101000203166002900480601f0160208091040260200160405190810160405280929190818152602001828054600181600116156101000203166002900480156105505780601f1061052557610100808354040283529160200191610550565b820191906000526020600020905b81548152906001019060200180831161053357829003601f168201915b505050600284015460038501546004860154600587015460069097015495966001600160a01b0390931695919450925060ff1687565b6000546001600160a01b031633146105de576040805162461bcd60e51b81526020600482015260166024820152752737ba103a34329031b7b73a3930b1ba1037bbb732b960511b604482015290519081900360640190fd5b478061061b5760405162461bcd60e51b8152600401808060200182810382526021815260200180610f346021913960400191505060405180910390fd5b604051339082156108fc029083906000818181858888f19350505050158015610648573d6000803e3d6000fd5b5050565b80600154811061069d576040805162461bcd60e51b815260206004820152601760248201527610d85b5c185a59db88191bd95cc81b9bdd08195e1a5cdd604a1b604482015290519081900360640190fd5b600082815260026020526040902060040154829042106106f9576040805162461bcd60e51b815260206004820152601260248201527110d85b5c185a59db881a185cc8195b99195960721b604482015290519081900360640190fd5b600034116107385760405162461bcd60e51b8152600401808060200182810382526022815260200180610ef16022913960400191505060405180910390fd5b600083815260026020908152604080832033808552600782018452938290208054349081019091556005820180548201905582518881529384019490945282820193909352517f0b5b4c52969ff7329ecf7ee536409fda87812b15a8622bc6e8cdeab3aee14a269181900360600190a150505050565b8060015481106107ff576040805162461bcd60e51b815260206004820152601760248201527610d85b5c185a59db88191bd95cc81b9bdd08195e1a5cdd604a1b604482015290519081900360640190fd5b6000828152600260205260409020600401548290421015610867576040805162461bcd60e51b815260206004820152601a60248201527f43616d706169676e20686173206e6f7420656e64656420796574000000000000604482015290519081900360640190fd5b60008181526002602052604090206006015460ff16156108c7576040805162461bcd60e51b815260206004820152601660248201527510d85b5c185a59db88185b1c9958591e48195b99195960521b604482015290519081900360640190fd5b60008381526002602052604090206003810154600582015410610931576040805162461bcd60e51b815260206004820152601d60248201527f43616d706169676e20676f616c206d65742c206e6f20726566756e6473000000604482015290519081900360640190fd5b3360009081526007820160205260409020548061098e576040805162461bcd60e51b8152602060048201526016602482015275139bc8191bdb985d1a5bdb9cc81d1bc81c99599d5b9960521b604482015290519081900360640190fd5b3360008181526007840160205260408082208290555183156108fc0291849190818181858888f193505050501580156109cb573d6000803e3d6000fd5b506040805186815233602082015280820183905290517f7a482fdeb6bc9a1376f597068a214a7a39472bb2eff1b8cad21ba04f49ddca1b9181900360600190a15050505050565b60015481565b6000546001600160a01b031681565b60008211610a7c576040805162461bcd60e51b815260206004820152601e60248201527f476f616c206d7573742062652067726561746572207468616e207a65726f0000604482015290519081900360640190fd5b6001600160a01b038316610ac15760405162461bcd60e51b8152600401808060200182810382526021815260200180610f136021913960400191505060405180910390fd5b60018054808201909155600081815260026020908152604090912087519091610aee9183918a0190610e55565b508551610b049060018301906020890190610e55565b506002810180546001600160a01b0319166001600160a01b038716908117909155600382018590554284016004830181905560006005840181905560068401805460ff191690556040805186815260608101949094526080840188905260a0840183905260c060208086018281528d51928701929092528c517f6dc009727ade93d61407adc1ed4b52cfc025b0c4cb8cd23577ea2d402c4838cd9689968f968f968f968f96939590939185019260e08601928b0191908190849084905b83811015610bd9578181015183820152602001610bc1565b50505050905090810190601f168015610c065780820380516001836020036101000a031916815260200191505b50838103825287518152875160209182019189019080838360005b83811015610c39578181015183820152602001610c21565b50505050905090810190601f168015610c665780820380516001836020036101000a031916815260200191505b509850505050505050505060405180910390a150505050505050565b806001548110610cd3576040805162461bcd60e51b815260206004820152601760248201527610d85b5c185a59db88191bd95cc81b9bdd08195e1a5cdd604a1b604482015290519081900360640190fd5b6000828152600260205260409020600401548290421015610d3b576040805162461bcd60e51b815260206004820152601a60248201527f43616d706169676e20686173206e6f7420656e64656420796574000000000000604482015290519081900360640190fd5b60008181526002602052604090206006015460ff1615610d9b576040805162461bcd60e51b815260206004820152601660248201527510d85b5c185a59db88185b1c9958591e48195b99195960521b604482015290519081900360640190fd5b600083815260026020526040902060068101805460ff1916600117905560058101548015610e015760028201546040516001600160a01b039091169082156108fc029083906000818181858888f19350505050158015610dff573d6000803e3d6000fd5b505b600282015460408051878152602081018490526001600160a01b0390921682820152517f57eaa6f2e5d5b59a37673af7f9e5588e06fe8282edb875db1598f59ef55195d69181900360600190a15050505050565b828054600181600116156101000203166002900490600052602060002090601f016020900481019282601f10610e9657805160ff1916838001178555610ec3565b82800160010185558215610ec3579182015b82811115610ec3578251825591602001919060010190610ea8565b50610ecf929150610ed3565b5090565b610eed91905b80821115610ecf5760008155600101610ed9565b9056fe446f6e6174696f6e206d7573742062652067726561746572207468616e207a65726f42656e65666163746f7220616464726573732063616e6e6f74206265207a65726f4e6f2066756e647320617661696c61626c6520666f72207769746864726177616c446972656374206574686572207472616e736665727320617265206e6f7420616c6c6f776564a265627a7a72315820272436f3d1c8143f8151029c1e5b39fed55ce35ff4f9e093542593af0c90c42164736f6c63430005100032",
  "linkReferences": {},
  "deployedLinkReferences": {}
}