{
  "_format": "hh-sol-artifact-1",
  "contractName": "MyNFT",
  "sourceName": "contracts/MyNFT.sol",
  "abi": [
    {
      "inputs": [],
      "stateMutability": "nonpayable",
      "type": "constructor"
    },
    {
      "anonymous": false,
      "inputs": [
        {
          "indexed": true,
          "internalType": "address",
          "name": "owner",
          "type": "address"
        },
        {
          "indexed": true,
          "internalType": "address",
          "name": "approved",
          "type": "address"
        },
        {
          "indexed": true,
          "internalType": "uint256",
          "name": "tokenId",
          "type": "uint256"
        }
      ],
      "name": "Approval",
      "type": "event"
    },
    {
      "anonymous": false,
      "inputs": [
        {
          "indexed": true,
          "internalType": "address",
          "name": "owner",
          "type": "address"
        },
        {
          "indexed": true,
          "internalType": "address",
          "name": "operator",
          "type": "address"
        },
        {
          "indexed": false,
          "internalType": "bool",
          "name": "approved",
          "type": "bool"
        }
      ],
      "name": "ApprovalForAll",
      "type": "event"
    },
    {
      "anonymous": false,
      "inputs": [
        {
          "indexed": false,
          "internalType": "uint256",
          "name": "_fromTokenId",
          "type": "uint256"
        },
        {
          "indexed": false,
          "internalType": "uint256",
          "name": "_toTokenId",
          "type": "uint256"
        }
      ],
      "name": "BatchMetadataUpdate",
      "type": "event"
    },
    {
      "anonymous": false,
      "inputs": [
        {
          "indexed": false,
          "internalType": "uint256",
          "name": "_tokenId",
          "type": "uint256"
        }
      ],
      "name": "MetadataUpdate",
      "type": "event"
    },
    {
      "anonymous": false,
      "inputs": [
        {
          "indexed": true,
          "internalType": "address",
          "name": "previousOwner",
          "type": "address"
        },
        {
          "indexed": true,
          "internalType": "address",
          "name": "newOwner",
          "type": "address"
        }
      ],
      "name": "OwnershipTransferred",
      "type": "event"
    },
    {
      "anonymous": false,
      "inputs": [
        {
          "indexed": true,
          "internalType": "address",
          "name": "from",
          "type": "address"
        },
        {
          "indexed": true,
          "internalType": "address",
          "name": "to",
          "type": "address"
        },
        {
          "indexed": true,
          "internalType": "uint256",
          "name": "tokenId",
          "type": "uint256"
        }
      ],
      "name": "Transfer",
      "type": "event"
    },
    {
      "inputs": [
        {
          "internalType": "address",
          "name": "to",
          "type": "address"
        },
        {
          "internalType": "uint256",
          "name": "tokenId",
          "type": "uint256"
        }
      ],
      "name": "approve",
      "outputs": [],
      "stateMutability": "nonpayable",
      "type": "function"
    },
    {
      "inputs": [
        {
          "internalType": "address",
          "name": "owner",
          "type": "address"
        }
      ],
      "name": "balanceOf",
      "outputs": [
        {
          "internalType": "uint256",
          "name": "",
          "type": "uint256"
        }
      ],
      "stateMutability": "view",
      "type": "function"
    },
    {
      "inputs": [
        {
          "internalType": "uint256",
          "name": "tokenId",
          "type": "uint256"
        }
      ],
      "name": "getApproved",
      "outputs": [
        {
          "internalType": "address",
          "name": "",
          "type": "address"
        }
      ],
      "stateMutability": "view",
      "type": "function"
    },
    {
      "inputs": [
        {
          "internalType": "address",
          "name": "owner",
          "type": "address"
        },
        {
          "internalType": "address",
          "name": "operator",
          "type": "address"
        }
      ],
      "name": "isApprovedForAll",
      "outputs": [
        {
          "internalType": "bool",
          "name": "",
          "type": "bool"
        }
      ],
      "stateMutability": "view",
      "type": "function"
    },
    {
      "inputs": [
        {
          "internalType": "address",
          "name": "recipient",
          "type": "address"
        },
        {
          "internalType": "string",
          "name": "tokenURI",
          "type": "string"
        }
      ],
      "name": "mintNFT",
      "outputs": [
        {
          "internalType": "uint256",
          "name": "",
          "type": "uint256"
        }
      ],
      "stateMutability": "nonpayable",
      "type": "function"
    },
    {
      "inputs": [],
      "name": "name",
      "outputs": [
        {
          "internalType": "string",
          "name": "",
          "type": "string"
        }
      ],
      "stateMutability": "view",
      "type": "function"
    },
    {
      "inputs": [],
      "name": "owner",
      "outputs": [
        {
          "internalType": "address",
          "name": "",
          "type": "address"
        }
      ],
      "stateMutability": "view",
      "type": "function"
    },
    {
      "inputs": [
        {
          "internalType": "uint256",
          "name": "tokenId",
          "type": "uint256"
        }
      ],
      "name": "ownerOf",
      "outputs": [
        {
          "internalType": "address",
          "name": "",
          "type": "address"
        }
      ],
      "stateMutability": "view",
      "type": "function"
    },
    {
      "inputs": [],
      "name": "renounceOwnership",
      "outputs": [],
      "stateMutability": "nonpayable",
      "type": "function"
    },
    {
      "inputs": [
        {
          "internalType": "address",
          "name": "from",
          "type": "address"
        },
        {
          "internalType": "address",
          "name": "to",
          "type": "address"
        },
        {
          "internalType": "uint256",
          "name": "tokenId",
          "type": "uint256"
        }
      ],
      "name": "safeTransferFrom",
      "outputs": [],
      "stateMutability": "nonpayable",
      "type": "function"
    },
    {
      "inputs": [
        {
          "internalType": "address",
          "name": "from",
          "type": "address"
        },
        {
          "internalType": "address",
          "name": "to",
          "type": "address"
        },
        {
          "internalType": "uint256",
          "name": "tokenId",
          "type": "uint256"
        },
        {
          "internalType": "bytes",
          "name": "data",
          "type": "bytes"
        }
      ],
      "name": "safeTransferFrom",
      "outputs": [],
      "stateMutability": "nonpayable",
      "type": "function"
    },
    {
      "inputs": [
        {
          "internalType": "address",
          "name": "operator",
          "type": "address"
        },
        {
          "internalType": "bool",
          "name": "approved",
          "type": "bool"
        }
      ],
      "name": "setApprovalForAll",
      "outputs": [],
      "stateMutability": "nonpayable",
      "type": "function"
    },
    {
      "inputs": [
        {
          "internalType": "bytes4",
          "name": "interfaceId",
          "type": "bytes4"
        }
      ],
      "name": "supportsInterface",
      "outputs": [
        {
          "internalType": "bool",
          "name": "",
          "type": "bool"
        }
      ],
      "stateMutability": "view",
      "type": "function"
    },
    {
      "inputs": [],
      "name": "symbol",
      "outputs": [
        {
          "internalType": "string",
          "name": "",
          "type": "string"
        }
      ],
      "stateMutability": "view",
      "type": "function"
    },
    {
      "inputs": [
        {
          "internalType": "uint256",
          "name": "tokenId",
          "type": "uint256"
        }
      ],
      "name": "tokenURI",
      "outputs": [
        {
          "internalType": "string",
          "name": "",
          "type": "string"
        }
      ],
      "stateMutability": "view",
      "type": "function"
    },
    {
      "inputs": [],
      "name": "totalSupply",
      "outputs": [
        {
          "internalType": "uint256",
          "name": "",
          "type": "uint256"
        }
      ],
      "stateMutability": "view",
      "type": "function"
    },
    {
      "inputs": [
        {
          "internalType": "address",
          "name": "from",
          "type": "address"
        },
        {
          "internalType": "address",
          "name": "to",
          "type": "address"
        },
        {
          "internalType": "uint256",
          "name": "tokenId",
          "type": "uint256"
        }
      ],
      "name": "transferFrom",
      "outputs": [],
      "stateMutability": "nonpayable",
      "type": "function"
    },
    {
      "inputs": [
        {
          "internalType": "address",
          "name": "newOwner",
          "type": "address"
        }
      ],
      "name": "transferOwnership",
      "outputs": [],
      "stateMutability": "nonpayable",
      "type": "function"
    }
  ],
  "bytecode": "0x60806040523480156200001157600080fd5b506040805180820182526005815264135e53919560da1b60208083019182528351808501909452600384526213919560ea1b9084015281519192916200005a91600091620000e9565b50805162000070906001906020840190620000e9565b5050506200008d620000876200009360201b60201c565b62000097565b620001cc565b3390565b600780546001600160a01b038381166001600160a01b0319831681179093556040519116919082907f8be0079c531659141344cd1fd0a4f28419497f9722a3daafe3b4186f6b6457e090600090a35050565b828054620000f7906200018f565b90600052602060002090601f0160209004810192826200011b576000855562000166565b82601f106200013657805160ff191683800117855562000166565b8280016001018555821562000166579182015b828111156200016657825182559160200191906001019062000149565b506200017492915062000178565b5090565b5b8082111562000174576000815560010162000179565b600281046001821680620001a457607f821691505b60208210811415620001c657634e487b7160e01b600052602260045260246000fd5b50919050565b61186480620001dc6000396000f3fe608060405234801561001057600080fd5b50600436106101165760003560e01c8063715018a6116100a2578063b88d4fde11610071578063b88d4fde1461021a578063c87b56dd1461022d578063e985e9c514610240578063eacabe1414610253578063f2fde38b1461026657610116565b8063715018a6146101ef5780638da5cb5b146101f757806395d89b41146101ff578063a22cb4651461020757610116565b806318160ddd116100e957806318160ddd1461018e57806323b872dd146101a357806342842e0e146101b65780636352211e146101c957806370a08231146101dc57610116565b806301ffc9a71461011b57806306fdde0314610144578063081812fc14610159578063095ea7b314610179575b600080fd5b61012e6101293660046112c6565b610279565b60405161013b91906113c2565b60405180910390f35b61014c6102a6565b60405161013b91906113cd565b61016c6101673660046112fe565b610338565b60405161013b9190611371565b61018c61018736600461129d565b61035f565b005b610196610400565b60405161013b9190611792565b61018c6101b1366004611150565b610411565b61018c6101c4366004611150565b610449565b61016c6101d73660046112fe565b610464565b6101966101ea366004611104565b610498565b61018c6104dc565b61016c6104f0565b61014c6104ff565b61018c610215366004611204565b61050e565b61018c61022836600461118b565b610524565b61014c61023b3660046112fe565b610563565b61012e61024e36600461111e565b610668565b61019661026136600461123e565b610696565b61018c610274366004611104565b6106d3565b60006001600160e01b03198216632483248360e11b148061029e575061029e8261070d565b90505b919050565b6060600080546102b5906117c7565b80601f01602080910402602001604051908101604052809291908181526020018280546102e1906117c7565b801561032e5780601f106103035761010080835404028352916020019161032e565b820191906000526020600020905b81548152906001019060200180831161031157829003601f168201915b5050505050905090565b60006103438261074d565b506000908152600460205260409020546001600160a01b031690565b600061036a82610464565b9050806001600160a01b0316836001600160a01b031614156103a75760405162461bcd60e51b815260040161039e906116f4565b60405180910390fd5b806001600160a01b03166103b9610772565b6001600160a01b031614806103d557506103d58161024e610772565b6103f15760405162461bcd60e51b815260040161039e90611735565b6103fb8383610776565b505050565b600061040c60086107e4565b905090565b61042261041c610772565b826107e8565b61043e5760405162461bcd60e51b815260040161039e906113e0565b6103fb838383610846565b6103fb83838360405180602001604052806000815250610524565b60008061047083610983565b90506001600160a01b03811661029e5760405162461bcd60e51b815260040161039e906116bd565b60006001600160a01b0382166104c05760405162461bcd60e51b815260040161039e906115bc565b506001600160a01b031660009081526003602052604090205490565b6104e461099e565b6104ee60006109dd565b565b6007546001600160a01b031690565b6060600180546102b5906117c7565b610520610519610772565b8383610a2f565b5050565b61053561052f610772565b836107e8565b6105515760405162461bcd60e51b815260040161039e906113e0565b61055d84848484610ad2565b50505050565b606061056e8261074d565b60008281526006602052604081208054610587906117c7565b80601f01602080910402602001604051908101604052809291908181526020018280546105b3906117c7565b80156106005780601f106105d557610100808354040283529160200191610600565b820191906000526020600020905b8154815290600101906020018083116105e357829003601f168201915b505050505090506000610611610b05565b9050805160001415610625575090506102a1565b81511561065757808260405160200161063f929190611342565b604051602081830303815290604052925050506102a1565b61066084610b17565b949350505050565b6001600160a01b03918216600090815260056020908152604080832093909416825291909152205460ff1690565b60006106a061099e565b6106aa6008610b7d565b60006106b660086107e4565b90506106c28482610b86565b6106cc8184610c7b565b9392505050565b6106db61099e565b6001600160a01b0381166107015760405162461bcd60e51b815260040161039e9061147f565b61070a816109dd565b50565b60006001600160e01b031982166380ac58cd60e01b148061073e57506001600160e01b03198216635b5e139f60e01b145b8061029e575061029e82610cfb565b61075681610d14565b61070a5760405162461bcd60e51b815260040161039e906116bd565b3390565b600081815260046020526040902080546001600160a01b0319166001600160a01b03841690811790915581906107ab82610464565b6001600160a01b03167f8c5be1e5ebec7d5bd14f71427d1e84f3dd0314c0f7b2291e5b200ac8c7c3b92560405160405180910390a45050565b5490565b6000806107f483610464565b9050806001600160a01b0316846001600160a01b0316148061081b575061081b8185610668565b806106605750836001600160a01b031661083484610338565b6001600160a01b031614949350505050565b826001600160a01b031661085982610464565b6001600160a01b03161461087f5760405162461bcd60e51b815260040161039e906114c5565b6001600160a01b0382166108a55760405162461bcd60e51b815260040161039e90611541565b6108b2838383600161055d565b826001600160a01b03166108c582610464565b6001600160a01b0316146108eb5760405162461bcd60e51b815260040161039e906114c5565b600081815260046020908152604080832080546001600160a01b03199081169091556001600160a01b0387811680865260038552838620805460001901905590871680865283862080546001019055868652600290945282852080549092168417909155905184937fddf252ad1be2c89b69c2b068fc378daa952ba7f163c4a11628f55a4df523b3ef91a46103fb838383600161055d565b6000908152600260205260409020546001600160a01b031690565b6109a6610772565b6001600160a01b03166109b76104f0565b6001600160a01b0316146104ee5760405162461bcd60e51b815260040161039e90611688565b600780546001600160a01b038381166001600160a01b0319831681179093556040519116919082907f8be0079c531659141344cd1fd0a4f28419497f9722a3daafe3b4186f6b6457e090600090a35050565b816001600160a01b0316836001600160a01b03161415610a615760405162461bcd60e51b815260040161039e90611585565b6001600160a01b0383811660008181526005602090815260408083209487168084529490915290819020805460ff1916851515179055517f17307eab39ab6107e8899845ad3d59bd9653f200f220920489ca2b5937696c3190610ac59085906113c2565b60405180910390a3505050565b610add848484610846565b610ae984848484610d31565b61055d5760405162461bcd60e51b815260040161039e9061142d565b60408051602081019091526000815290565b6060610b228261074d565b6000610b2c610b05565b90506000815111610b4c57604051806020016040528060008152506106cc565b80610b5684610e4c565b604051602001610b67929190611342565b6040516020818303038152906040529392505050565b80546001019055565b6001600160a01b038216610bac5760405162461bcd60e51b815260040161039e90611653565b610bb581610d14565b15610bd25760405162461bcd60e51b815260040161039e9061150a565b610be060008383600161055d565b610be981610d14565b15610c065760405162461bcd60e51b815260040161039e9061150a565b6001600160a01b038216600081815260036020908152604080832080546001019055848352600290915280822080546001600160a01b0319168417905551839291907fddf252ad1be2c89b69c2b068fc378daa952ba7f163c4a11628f55a4df523b3ef908290a461052060008383600161055d565b610c8482610d14565b610ca05760405162461bcd60e51b815260040161039e90611605565b60008281526006602090815260409091208251610cbf92840190610fde565b507ff8e1a15aba9398e019f0b49df1a4fde98ee17ae345cb5f6b5e2c27f5033e8ce782604051610cef9190611792565b60405180910390a15050565b6001600160e01b031981166301ffc9a760e01b14919050565b600080610d2083610983565b6001600160a01b0316141592915050565b6000610d45846001600160a01b0316610ef7565b15610e4157836001600160a01b031663150b7a02610d61610772565b8786866040518563ffffffff1660e01b8152600401610d839493929190611385565b602060405180830381600087803b158015610d9d57600080fd5b505af1925050508015610dcd575060408051601f3d908101601f19168201909252610dca918101906112e2565b60015b610e27573d808015610dfb576040519150601f19603f3d011682016040523d82523d6000602084013e610e00565b606091505b508051610e1f5760405162461bcd60e51b815260040161039e9061142d565b805181602001fd5b6001600160e01b031916630a85bd0160e11b149050610660565b506001949350505050565b60606000610e5983610f06565b600101905060008167ffffffffffffffff811115610e8757634e487b7160e01b600052604160045260246000fd5b6040519080825280601f01601f191660200182016040528015610eb1576020820181803683370190505b5090508181016020015b600019016f181899199a1a9b1b9c1cb0b131b232b360811b600a86061a8153600a8504945084610eea57610eef565b610ebb565b509392505050565b6001600160a01b03163b151590565b60008072184f03e93ff9f4daa797ed6e38ed64bf6a1f0160401b8310610f455772184f03e93ff9f4daa797ed6e38ed64bf6a1f0160401b830492506040015b6d04ee2d6d415b85acef81000000008310610f71576d04ee2d6d415b85acef8100000000830492506020015b662386f26fc100008310610f8f57662386f26fc10000830492506010015b6305f5e1008310610fa7576305f5e100830492506008015b6127108310610fbb57612710830492506004015b60648310610fcd576064830492506002015b600a831061029e5760010192915050565b828054610fea906117c7565b90600052602060002090601f01602090048101928261100c5760008555611052565b82601f1061102557805160ff1916838001178555611052565b82800160010185558215611052579182015b82811115611052578251825591602001919060010190611037565b5061105e929150611062565b5090565b5b8082111561105e5760008155600101611063565b600067ffffffffffffffff8084111561109257611092611802565b604051601f8501601f19908116603f011681019082821181831017156110ba576110ba611802565b816040528093508581528686860111156110d357600080fd5b858560208301376000602087830101525050509392505050565b80356001600160a01b03811681146102a157600080fd5b600060208284031215611115578081fd5b6106cc826110ed565b60008060408385031215611130578081fd5b611139836110ed565b9150611147602084016110ed565b90509250929050565b600080600060608486031215611164578081fd5b61116d846110ed565b925061117b602085016110ed565b9150604084013590509250925092565b600080600080608085870312156111a0578081fd5b6111a9856110ed565b93506111b7602086016110ed565b925060408501359150606085013567ffffffffffffffff8111156111d9578182fd5b8501601f810187136111e9578182fd5b6111f887823560208401611077565b91505092959194509250565b60008060408385031215611216578182fd5b61121f836110ed565b915060208301358015158114611233578182fd5b809150509250929050565b60008060408385031215611250578182fd5b611259836110ed565b9150602083013567ffffffffffffffff811115611274578182fd5b8301601f81018513611284578182fd5b61129385823560208401611077565b9150509250929050565b600080604083850312156112af578182fd5b6112b8836110ed565b946020939093013593505050565b6000602082840312156112d7578081fd5b81356106cc81611818565b6000602082840312156112f3578081fd5b81516106cc81611818565b60006020828403121561130f578081fd5b5035919050565b6000815180845261132e81602086016020860161179b565b601f01601f19169290920160200192915050565b6000835161135481846020880161179b565b83519083019061136881836020880161179b565b01949350505050565b6001600160a01b0391909116815260200190565b6001600160a01b03858116825284166020820152604081018390526080606082018190526000906113b890830184611316565b9695505050505050565b901515815260200190565b6000602082526106cc6020830184611316565b6020808252602d908201527f4552433732313a2063616c6c6572206973206e6f7420746f6b656e206f776e6560408201526c1c881bdc88185c1c1c9bdd9959609a1b606082015260800190565b60208082526032908201527f4552433732313a207472616e7366657220746f206e6f6e20455243373231526560408201527131b2b4bb32b91034b6b83632b6b2b73a32b960711b606082015260800190565b60208082526026908201527f4f776e61626c653a206e6577206f776e657220697320746865207a65726f206160408201526564647265737360d01b606082015260800190565b60208082526025908201527f4552433732313a207472616e736665722066726f6d20696e636f72726563742060408201526437bbb732b960d91b606082015260800190565b6020808252601c908201527f4552433732313a20746f6b656e20616c7265616479206d696e74656400000000604082015260600190565b60208082526024908201527f4552433732313a207472616e7366657220746f20746865207a65726f206164646040820152637265737360e01b606082015260800190565b60208082526019908201527f4552433732313a20617070726f766520746f2063616c6c657200000000000000604082015260600190565b60208082526029908201527f4552433732313a2061646472657373207a65726f206973206e6f7420612076616040820152683634b21037bbb732b960b91b606082015260800190565b6020808252602e908201527f45524337323155524953746f726167653a2055524920736574206f66206e6f6e60408201526d32bc34b9ba32b73a103a37b5b2b760911b606082015260800190565b6020808252818101527f4552433732313a206d696e7420746f20746865207a65726f2061646472657373604082015260600190565b6020808252818101527f4f776e61626c653a2063616c6c6572206973206e6f7420746865206f776e6572604082015260600190565b60208082526018908201527f4552433732313a20696e76616c696420746f6b656e2049440000000000000000604082015260600190565b60208082526021908201527f4552433732313a20617070726f76616c20746f2063757272656e74206f776e656040820152603960f91b606082015260800190565b6020808252603d908201527f4552433732313a20617070726f76652063616c6c6572206973206e6f7420746f60408201527f6b656e206f776e6572206f7220617070726f76656420666f7220616c6c000000606082015260800190565b90815260200190565b60005b838110156117b657818101518382015260200161179e565b8381111561055d5750506000910152565b6002810460018216806117db57607f821691505b602082108114156117fc57634e487b7160e01b600052602260045260246000fd5b50919050565b634e487b7160e01b600052604160045260246000fd5b6001600160e01b03198116811461070a57600080fdfea2646970667358221220f8cd9980be3c0c3f158ff4f06c4e8f98f6cd1b1db0938e03ab4e45a2c7e5c5dd64736f6c63430008010033",
  "linkReferences": {},
  "deployedLinkReferences": {}
}