{
  "_format": "hh-sol-artifact-1",
  "contractName": "Bank",
  "sourceName": "contracts/Bank.sol",
  "abi": [
    {
      "constant": true,
      "inputs": [
        {
          "internalType": "address",
          "name": "",
          "type": "address"
        }
      ],
      "name": "accounts",
      "outputs": [
        {
          "internalType": "address",
          "name": "owner",
          "type": "address"
        },
        {
          "internalType": "uint256",
          "name": "balance",
          "type": "uint256"
        }
      ],
      "payable": false,
      "stateMutability": "view",
      "type": "function"
    },
    {
      "constant": false,
      "inputs": [],
      "name": "createAccount",
      "outputs": [],
      "payable": false,
      "stateMutability": "nonpayable",
      "type": "function"
    },
    {
      "constant": false,
      "inputs": [],
      "name": "deposit",
      "outputs": [],
      "payable": true,
      "stateMutability": "payable",
      "type": "function"
    },
    {
      "constant": true,
      "inputs": [],
      "name": "getBalance",
      "outputs": [
        {
          "internalType": "uint256",
          "name": "",
          "type": "uint256"
        }
      ],
      "payable": false,
      "stateMutability": "view",
      "type": "function"
    },
    {
      "constant": false,
      "inputs": [
        {
          "internalType": "address",
          "name": "to",
          "type": "address"
        },
        {
          "internalType": "uint256",
          "name": "amount",
          "type": "uint256"
        }
      ],
      "name": "transfer",
      "outputs": [],
      "payable": false,
      "stateMutability": "nonpayable",
      "type": "function"
    },
    {
      "constant": false,
      "inputs": [
        {
          "internalType": "uint256",
          "name": "amount",
          "type": "uint256"
        }
      ],
      "name": "withdraw",
      "outputs": [],
      "payable": false,
      "stateMutability": "nonpayable",
      "type": "function"
    }
  ],
  "bytecode": "0x608060405234801561001057600080fd5b50610493806100206000396000f3fe6080604052600436106100555760003560e01c806312065fe01461005a5780632e1a7d4d146100815780635e5c06e2146100ad5780639dca362f14610103578063a9059cbb14610118578063d0e30db014610151575b600080fd5b34801561006657600080fd5b5061006f610159565b60408051918252519081900360200190f35b34801561008d57600080fd5b506100ab600480360360208110156100a457600080fd5b503561016f565b005b3480156100b957600080fd5b506100e0600480360360208110156100d057600080fd5b50356001600160a01b0316610211565b604080516001600160a01b03909316835260208301919091528051918290030190f35b34801561010f57600080fd5b506100ab610236565b34801561012457600080fd5b506100ab6004803603604081101561013b57600080fd5b506001600160a01b0381351690602001356102e1565b6100ab6103e1565b3360009081526020819052604090206001015490565b336000908152602081905260409020600101548111156101cb576040805162461bcd60e51b8152602060048201526012602482015271496e73756666696369656e742066756e647360701b604482015290519081900360640190fd5b33600081815260208190526040808220600101805485900390555183156108fc0291849190818181858888f1935050505015801561020d573d6000803e3d6000fd5b5050565b600060208190529081526040902080546001909101546001600160a01b039091169082565b336000908152602081905260409020546001600160a01b03161561029a576040805162461bcd60e51b81526020600482015260166024820152754163636f756e7420616c72656164792065786973747360501b604482015290519081900360640190fd5b604080518082018252338082526000602080840182815292825281905292909220905181546001600160a01b0319166001600160a01b039091161781559051600190910155565b3360009081526020819052604090206001015481111561033d576040805162461bcd60e51b8152602060048201526012602482015271496e73756666696369656e742066756e647360701b604482015290519081900360640190fd5b6001600160a01b03828116600090815260208190526040902054166103a9576040805162461bcd60e51b815260206004820181905260248201527f526563697069656e74206163636f756e7420646f6573206e6f74206578697374604482015290519081900360640190fd5b336000908152602081905260408082206001908101805485900390556001600160a01b03949094168252902090910180549091019055565b336000908152602081905260409020546001600160a01b0316610444576040805162461bcd60e51b81526020600482015260166024820152751058d8dbdd5b9d08191bd95cc81b9bdd08195e1a5cdd60521b604482015290519081900360640190fd5b33600090815260208190526040902060010180543401905556fea265627a7a72315820fbbb9ab1935210ec05081e407d178b458a822088c0ca132484eb539a1949027564736f6c63430005100032",
  "linkReferences": {},
  "deployedLinkReferences": {}
}